:400000000080002011000000550300005503000008B5054B1A6803F53F5302331A6000F017FC00F09FF900BFFA46004010B5054C237833B9044B13B10448AFF3008001238B
:40004000237010BD4881FF1F000000002C2A0000084B10B51BB108490848AFF300800848036803B910BD074B002BFBD0BDE81040184700BF000000004C81FF1F2C2A00005C
:40008000C880FF1F0000000010B562B600F0CEFA002000F0D9F9002000F0CAF9002000F0BBF9012000F054FA642000F0E3F900F0E9FE00240134E4B204F0010000F0C4F9B5
:4000C000C4F3400000F0B4F9C4F3800000F0A4F94FF4FA7000F0CEF9ECE700BFFEE700BFF0B40022174611E050F82760F3B226F0FF0608E001EB420511F812406D78A55516
:400100000132013BDBB2002BF4D10137122FEBD9F0BC7047064B1B78DBB203F00701054A11701B09013213704422034B1A707047CF0100496E5800407658004008B50A46EE
:40014000002102F066FC08BD08B502F057FC08BD08B502F053FC08BD38B540F2DF12344B1A80182202331A70062203F27E231A7043F21332EE3B1A80023B05221A701B7893
:4001800043F2C82404E04FF4F07000F039FF013C24B1284B1B7813F0800FF4D114B90120FFF79CFF4FF4E262234B1A8001224FF040231A7041F2512203F508731A800024CC
:4001C00019250CE01D4B1B7803F0010343EA440404F003044FF4F07000F012FF013D0DB1032CEFD115B90320FFF778FF144B4FF480721A800321134A1170134A1278D2B2EB
:4002000012490A7007221A700022A1F29B610A704820023108701A7002230D4A1370083A137002F2A132137843F00103137038BD80400040104200402242004025420040CC
:40024000044000400042004008010049A14600400940004038B572B600240CE0314D630019194A0011462A44084691882858FFF765FF0134E4B2062CF0D92A4C04F12C0190
:4002800004F18800FFF72CFF274A137843F0020313701032137843F002031370234D2B7843F040032B70A2F58632513A137843F010031370082204F1D4011D48FFF744FF7D
:4002C000082204F1DC011B48FFF73EFF0A2204F1E4011948FFF738FF082204F1F0011748FFF732FF0A2204F1F8011548FFF72CFF082204F582711348FFF726FF124A137837
:4003000043F008031370114C61232370FFF724FFC1232370FFF7FEFE0E2229460C48FFF717FF38BD302A000003500140A043004002510040C2510040F051004012510040F7
:4003400020510040325100402243004000480040B043004008B502F025FB03680C2B00D1FEE7FEE708B5104E104D16E029686B68AC68002204E051F8040B43F8040B0432D9
:40038000A242F8D1E868002203E0002143F8041B04328242F9D11035013E002EE6D102F007FBFFF771FEFEE701000000082D000008B5104A104B1A60104A136843F40073B4
:4003C000136000230AE0032B03D80D4A52F8231000E00C490C4A42F8231001332F2BF2D90A4B1A780A4B1A70074A0A4B1A60FFF731FF08BD0004FA050CED00E014ED00E0C1
:4004000000000000550300000080FF1FBC760040C080FF1F08ED00E0044A137803F0BF03800100F0400018431070704720510040044A137803F0DF03400100F02000184345
:400440001070704720510040044A137803F0EF03000100F010001843107070472051004001BE7047024A137843F0010313707047F646004010B5044605E0084B186800F0A1
:40048000BFFDA4F50044B4F5004FF6D8034B586800FB04F000F0B4FD10BD00BFCC80FF1F08B5034B1B7A00FB03F000F0A9FD08BDCC80FF1F08B500F0ABFD00BF00BF00BF64
:4004C00000BF00BF00BF00BF00BF00BF00BF00BF00BF00BF00BF00BF00BF064A13889BB243F0040313801388BFF36F8F00F094FD08BD00BF0048004070B504460E46074B57
:400500001D681F2802D90020FFF7AAFF04F01F04103455F8240045F8246070BD08ED00E038B504460D46072902D90020FFF798FF1F2C02D90020FFF793FF04F01F0000F1B2
:40054000604000F564406D01EDB2057038BD00BF044A137803F07F03C001C0B218431070704700BF20510040084A137843F0010313701032137843F00103137002F64D32F4
:40058000137843F001031370704700BFA3430040014B1880704700BF044F0040014B1880704700BF064F0040014B1870704700BF034F004008B51A4A137843F0020313703B
:4005C0000232137803F08F0343F010031370154B1A7802F0CF021A701A7842F030021A701A7802F0F0021A701A7842F00F021A7042F21070FFF7CCFF4FF47A70FFF7CEFF6B
:400600000020FFF7D1FF084A137843F00103137002F65E32137843F00103137008BD00BF004F00400B4F0040A343004008B5054B1B7823B9FFF7BEFF0122024B1A70FFF77E
:4006400093FF08BD6481FF1F002306E0421812F8012C13449BB2013989B20029F6D1584280B2704730B4002306E01C5CE4B2CD5CAC4205D101339BB29342F6D3002000E0F3
:40068000022030BC704700BF004700BF08B58022024B1A70FFF7E6FE08BD00BFFA4600402DE9F04182B00C46164602AF27F8022D01230B7048701546A270130ACB7002F167
:4006C00004081FFA88F12046FFF7BEFF04F80800731DC0F30720E054063517236355F11D96233A4689B2204600F016FC02B0BDE8F08100BF70B505460E461446084B9842B8
:4007000003D010B10020FFF7ABFE002004E0013CAB19E35C1844C0B2002CF8D170BD00BF0080004008B501380B2873D8DFE800F0060F18212A33453C4E576069C1EB0161E0
:400740000B0203F57F3303F57073012167E0C1EB01610B0203F57F3303F2C13304215EE0C1EB01610B0203F57F3303F2C533022155E0C1EB01610B0203F57F3303F2C933AD
:4007800004214CE0C1EB01610B0203F57F3303F57473012143E0C1EB01610B0203F57F3303F2D13301213AE0C1EB01610B0203F57F3303F2D633022131E0C1EB01610B02F3
:4007C00003F57F3303F2D233022128E0C1EB01610B0203F57F3303F5757302211FE0C1EB01610B0203F57F3303F57673042116E0C1EB01610B0203F57F3303F577730121D9
:400800000DE0C1EB01610B0203F57F3303F57873042104E00020FFF723FE02210023012902D11878C0B200E00020022903D11A78587842EA0020042909D11A78587842EA5C
:400840000022987842EA0042D87842EA006008BD08B50A4B1B7803F0C003802B0CD10021064B19700220FFF75DFF28B100210220FFF758FFFFF708FF08BD00BFFA4600407B
:40088000F8B5064601460320FFF74CFF0130070231460420FFF746FF074431460320FFF741FF013000020024254608E003785A1ED2B2FD2A00D801252344DCB20130B84203
:4008C000F4D331460320FFF72DFF01300002C0080F4B9F4201D0FF0808E04FF4004705E000F190431B782344DCB20130B842F7D36442E4B231460120FFF714FF844202D159
:400900001DB90620F8BD0620F8BD0020F8BD00BFC0FF03002DE9F04FADF51F7D054600F0D5FB10B10020FFF79BFD00F0DFFA62B64FF0000A57460A24D0460DB9FF2300E0F5
:400940002B460DF276224FF4967152A800F006FB0DB1013CE4B20CB10028EED1002840F08782BDF87632062B26D99DF84821012A24D19DF84B819DF84A2142EA08284146B5
:4009800008F107029A421BD8B2F5967F1AD84A1D52AB9E5C0A1D9A5C42EA062606315B5C172B11D108F1040189B252A8FFF74CFE86420BD100260AE0042608E0042606E08A
:4009C000032604E0032602E0042600E00826002E40F0E9819DF84C919DF84921A2F13103142B00F2B881DFE813F015007D00B601A5001301B60119012E01A5004001A801E2
:400A0000B601B601B601B601B601B601B601B601B6012600002F00F0C881B8F1000F40F0C7810020FFF72CFFB0FA80F040098DF84C01012215E2002F00F0BD81B8F1030FE1
:400A400004D040F22313984540F0B8819DF84EB19DF84D3143EA0B2BB8F1030F06D0A8F103020DF24F1107A801F0C8FFA9F14003DBB23F2B08D80BF1806303F500631801EE
:400A800010230193802309E0B9F1030F00F299810BEB092318024FF4807301935B4500D80A26002E40F09081019A07A9FFF7DAFD0646002840F08A81B9F1030F00F2888180
:400AC000019B9A4540F2868109F510300BEB0020202207A90B4419464001FFF7C3FD06460022BEE1002F00F07781B8F1010F40F07681B9F1030F00F27581C04B1B681B689E
:400B0000C3F30742914502D1C3F3072305E0914501D9002301E04FF480738DF84C311B0A8DF84D31FF238DF84E3100238DF84F31042296E1342A15D1002F00F05681B8F166
:400B4000030F40F05581A9F14003DBB23F2B02D84FF0100A01E04FF4907A5246002107A801F057FF002F00F04681B8F1020F40F24F81A8F103020DF24F1107AB03EB0A0030
:400B800001F03CFFC2441FFA8AFAAAF1030A1FFA8AFAA9F14003DBB23F2B05D800F01CFB80234FF0100803E04FF480734FF49078D04540F030819DF84EA19DF84D2142EA62
:400BC0000A2A534500D80A26002E40F02981B9F13F0F0FD80AEB092292B2884B1B681968C1F30F2311F0FF0F01D001339BB2934200F21881434607AA5146484600F070FA9F
:400C000000B10A26FFF756FC4FF0000A524628E1002F40F02B810426002222E1002F00F0068108EB0A03B3F5967F00F20381424653A907AB03EB0A0001F0E0FEC2441FFA52
:400C40008AFA00220DE1B8F1000F40F0F68004AB6B4A92E8030083E8030053AA82E803004FF0000A01270822FBE0002F00F0E880B8F1030F40F0E7809DF84EB19DF84D31D3
:400C800043EA0B2BA9F14003DBB23F2B10D84FEA0B11BBF17F0F01D8334600E00A23002B40F0D48010225748FFF724FD019011E00BEB09210902BBF1FF0F01D8334600E0F7
:400CC0000A23002B40F0C5804FF480720020FFF711FD0190B9F13F0F0FD809F510320BEB02225201002306E0995C01980144C9B2019101339BB21F2BF6D9B9F1030F16D18B
:400D0000BBF1FF0F13D100210520FFF70BFDC0B2019BC0EB03095FFA89F900210620FFF701FDC0B2C0EB09095FFA89F30193019B5B428DF84C31012293E00020FFF7A0FDDA
:400D400010B98022304B1A7000F0DCF8FFF78AFB0426002285E02D4B1B68002B7CD0002F7DD08DF80820ADF80A8053AA0392002104910591069204A902A89847BDF81420B4
:400D8000B2F5937F03D3069953AB994205D0069B03B92AB99DF8106063E00E26002260E00E2600225DE000225BE00426002258E00426002255E00426002252E0042600227A
:400DC0004FE0092600224CE000224AE0002248E0002246E0002244E00426002241E0042600223EE0042600223BE00426002238E00426002235E00426002232E0DC80FF1F48
:400E00003C2B000000800040FA4600406881FF1F0426002225E04FF0000A0326524620E000221EE04FF0000A0A26524619E00426002216E00326002213E00426002210E0C3
:400E4000042600220DE0042600220AE01E46002207E01E46002204E00526002201E00526002252A93046FFF71BFC01E04FF0000A002D3FF462AD002F7FF45FAD0DF51F7D4E
:400E8000BDE8F08F38B50020FFF7FAFC08B1062400E00024134D2B681A6800210846FFF729FC6B681B78C01AC0B24042C0B2834202D12B681B6813B90020FFF7D1FA0A4BD9
:400EC0001B7803F0C003402B00D024B10020064B1870FFF71FFD1E20FFF71CFDFFF7D6FB38BD00BFDC80FF1FFA46004008B562B60221002000F09CFB0122014B1A7008BD6F
:400F00006C81FF1F08B500F0D7FB08BD08B5012000F0AAFC08BD00BF70B50E46154603EB83035C00A4B240220146022000F052FC04E00120FFF79EFA013CA4B2022000F02F
:400F40002BFC08B9002CF4D1022000F025FC10B12E80002070BD102070BD00BF2DE9F04180460E46174603EB83035C00A4B2402900D94026204B1B7833B916E00120FFF70A
:400F800079FA013DADB200E0254600F0EFFB08B9002DF3D100F0EAFBA8B100F0EDFBFFF7B5FF0022144B1A700DE000F0E5FB50B100F0DCFB38B1FFF7A9FF04E00120FFF788
:400FC00059FA013CA4B2012000F0E6FB012801D0002CF3D1012000F0DFFB012807D13246414600F057FC38800020BDE8F08100233B801020BDE8F0816C81FF1F00000000E4
:401000000230800803D000BF01380046FCD17047EFF3108072B6704780F31088704700BF10B500F003F900F0B1F910BB012000F08FF9072818D102210F4800F009F9022832
:401040000AD102E00120FFF72BFA0C4B1B7813F0020FF7D0002409E0084B1B7813F0020FE9D04FF0FF3401E04FF0FF3400F0B4F900E00424204610BD8081FF1F224700408D
:4010800010B500F0D3F800F081F9D0B900F0C0F90446072812D102E00120FFF701FA0A4B1B7813F0020FF7D0074B1B7813F0020F04D0054B1B789B0800D1002400F08CF944
:4010C00000E00424204610BD2247004008B5FFF7D7FF034610B9FFF7A3FF0346184608BD2DE9F041441FE4B23A2C01D9002500E0012510F0800F00D00125412800D90125D5
:401100003F2803D8B1F5807F06D808E0802900D90125102B02D102E0012500E0012502B90125002D50D1984616460F46044600F02DF9002847D1434632463946204600F00A
:40114000A1F8064607283AD102E00120FFF7A8F91F4B1B7813F0020FF7D01D4B1B7813F0020F06D01A4B1B789B0805D04FF0FF3603E04FF0FF3600E02E4606BB154A53787F
:4011800012783946204600F0BDF8072804D0064615E00120FFF784F90D4B1B7813F0020FF7D00B4B1B7813F0020F06D0084B1B789B0804D04FF0FF3601E04FF0FF3600F094
:4011C0000BF9354600E004252846BDE8F08100BF224700408081FF1F08B5FFF719FF0F4A137843F0080313701032137843F008031370C8220A4B1A700A4A137843F0100370
:4012000013701032137843F010031370064B1B7813F0200FFAD0FFF7FFFE08BDA043004001470040AC4300400047004008B5FFF7EFFE064A137843F0080313701032137893
:4012400043F008031370FFF7E7FE08BDA043004070B506460D4600240CE00120FFF720F9064B1B7813F0010FF7D0054B1B7833550134E4B2AC42F3D3204670BD2247004002
:401280002047004070B41D4C247814F0020F2CD01B4CB6252570D5252570022525700234247814F0020F22D1154C2070002404E0165D134D2E700134A4B29C42F8D3B3F50B
:4012C000807F16D13F2816D800F5103001EB00214801002305E01A5CD2B209490A7001339BB21F2BF7D9072006E0042004E0092002E0072000E0072070BC704722470040E5
:401300002047004030B4104C247814F0020F15D00E4CB6252570D8252570052525700234247814F0020F0BD1084C2070080A2070C9B2217022702370072002E0042000E08E
:40134000092030BC704700BF22470040204700400C4B1B7813F0020F0FD00B4BB6221A70E1221A700E221A7002331B7813F0020F05D1054B1870072070470420704709204A
:40138000704700BF224700402047004010B5FFF73FFE0F4B1B78A3B901220D4B1A700D4B1B6813F0010F0ED00A4A136823F00103136000BF00BF00BF0122054B5A6000246E
:4013C00002E0042400E00024FFF726FE204610BD7081FF1F0400084008B5FFF719FE0A4B00221A705B68012B0AD1084A136843F00103136000BF00BF00BF0022024B5A60C5
:40140000FFF70AFE08BD00BF7081FF1F04000840074B1B7813F0020F08D0064BB6221A70E0221A700D221A7007207047042070472247004020470040F8B5FFF7E9FD064628
:401440003C4A137843F0010313701032137843F0010313700125384B1D700227943B1F7002F5E2521B32137803F07F0313700020FFF716F8314C237803F0F9032370304A2A
:40148000137803F0DF03137023782B4323702846FFF706F82820FFF703F82A4B1A7802F07F021A701A7802F0BF021A7023783B4323703846FEF7F4FF237843F004032370C5
:4014C0000024214B1C7001331C703046FFF7A4FD07211720FFF724F81C491720FFF70CF807211820FFF71CF819491820FFF704F807211520FFF714F816491520FEF7FCFF23
:4015000007212046FFF70CF813492046FEF7F4FF07212846FFF704F810492846FEF7ECFF07210C20FEF7FCFF0D490C20FEF7E4FFF8BD00BFA54300409D60004094430040BC
:4015400012600040F851004084600040C11D0000E51B0000BD1D0000591D0000891D00005920000010B5002304E00124234AD4542344DBB2002BF8D0214B18700023214AD0
:401580001370214A1370214A1370214A1370214A1370214A1370214A1370214B4FF400021A604FF080721A604FF400121A6001221A6002221A6011B1012906D00BE0194A24
:4015C000137803F0FE0313700AE0164A137843F00103137004E0134A137803F0FE0313700322114B1A708022203B1A700120FFF707FD04220D4B1A7010BD00BF2482FF1F12
:401600009881FF1F9E81FF1F9C81FF1F9D81FF1F9981FF1F8481FF1F9B81FF1F1482FF1F00E100E009600040286000401260004038B504460D46064B1B7823B9FFF7FCFE58
:401640000122034B1A7029462046FFF78BFF38BD7881FF1F002304E001210E4AD1540B44DBB2002BF8D000230B4A13700B4A13700B4A13700B4A13700B4A13700B4A137066
:401680000B4A137003220B4B1A708022203B1A70704700BF2482FF1F9E81FF1F9C81FF1F9D81FF1F9981FF1F8481FF1F9B81FF1F1482FF1F2860004008B5FFF7A9FC214A04
:4016C000137803F07F0313700A32137803F0FB031370A2F5E3520D3A137803F0FE0313701032137803F0FE031370174B1A7842F080021A701A7842F040021A70FFF78CFC93
:40170000124B4FF400021A604FF080721A604FF400121A6001221A6002221A6001F00EF94FF480520A4B1A6000230A4A13700A4A13700A4A13700A4A13700A4A13700A4A52
:40174000137008BD08600040F851004080E100E080E200E09C81FF1F9D81FF1F9981FF1F8481FF1F9B81FF1F7881FF1F014B1878704700BF9D81FF1F064B1B7813F0FF0FC7
:4017800005D0044B1878C0B200221A7070470020704700BF9C81FF1F00EB40008300024A13445878704700BFA881FF1F431EDBB2072B0BD8064B00011A18185C00F00F00F7
:4017C000537843EA0020023880B2704700207047FC5F0040431EDBB2072B3CD8F0B4074600EB4004A3001C4C2344DB889BB2C3F500739A4208D900EB400293002344DA8855
:4018000092B2C2F5007292B200EB4004A300124C2344DB7843EA1223104D04012E192B55D3B2737039B909E0CE5C3D010C4C665501339BB200E000239A42F5D8420002440F
:401840009300054A134400225A705A79D2B20001044B1A54F0BC7047A881FF1FFC5F004078600040FE5F0040431EDBB2072B0BD8420002449300054A134400225A705A79B1
:40188000D2B20001024B1A54704700BFA881FF1FFE5F004070B5D9B1054614460E46C8B1082819D8FFF782FFA04203D22846FFF77DFF0446002305E02901094A525CF2547B
:4018C00001339BB2A342F7D32846FFF7CDFF04E0002402E0002400E00024204670BD00BF786000401D4B19781D4A13889BB20B449BB2138000220FE01A494B681B78DBB24E
:40190000194883544B6801334B600132D2B20B889BB2013B9BB20B80124B1B889BB20BB1072AE9D90D4B1B78DBB2082B00D05AB10E490B7883F080030B700F210C4B197055
:4019400002210C4B197004E0022309490B7009490B70094B1A70014B1A7070471482FF1F1A82FF1F8C81FF1F006000409A81FF1F8581FF1F9E81FF1F1582FF1F0222074B58
:401980001A708022064B1A700F22064B1A700023054A1370054A1370012070479E81FF1F9A81FF1F8581FF1F1482FF1F1582FF1F08B5FFF797FF08BD10B4194B197801F0BA
:4019C0000F010239C9B2174A13889BB20B449BB21380002011E0144A5468144B1B5CDBB223705368013353600130C0B20139C9B213889BB2013B9BB213800B4B1B889BB244
:401A00000BB10029E7D10A4B19700A4A137883F0800313700B22084B1A7010BC704700BF296000401A82FF1F8C81FF1F006000401582FF1F9A81FF1F8581FF1F0623064AAE
:401A40001370064A13708022054B1A700022054B1A700120704700BF9E81FF1F8581FF1F9A81FF1F1582FF1F064B9B6843B1054B9A6810709A6804490988518000229A60CB
:401A8000704700BF8C81FF1F1A82FF1F08B5134B1A78D2B21A701B78DBB213F0800F02D00F4A137008BD0220FFF7DEFF0D4B1B7803F06003202B05D0402B06D043B900F068
:401AC00075FD06E000F042FF03E000F019FF00E0002010B90322024B1A7008BD286000408581FF1F0060004008B5094B1978094A13889BB20B449BB213800022064B1A7053
:401B00000120FFF7B1FF0322044B1A7008BD00BF1482FF1F1A82FF1F9E81FF1F8581FF1F08B50B4B1B78DBB2042B06D0062B07D0022B0BD1FFF7D8FF08BDFFF73DFF08BDBB
:401B40000320FFF791FF0322024B1A7008BD00BF9E81FF1F8581FF1F08B50022044B1A700120FFF781FF0322024B1A7008BD00BF9E81FF1F8581FF1F08B50B4B1B7813F002
:401B8000FF0F07D0084A137843F0800307490B70002313700022064B1A700120FFF764FF0322044B1A7008BD8481FF1F086000409E81FF1F8581FF1F08B5094B1B78DBB2A5
:401BC000042B06D0062B07D0022B07D1FFF7F0FE08BDFFF7C1FF08BDFFF7CEFF08BD00BF9E81FF1F08B5284B1B78DBB213F0100F48D013F0800F0CD003F00F03012B16D11B
:401C0000FFF744FF214B1B7813F0800F11D1012312E013F0400F03D0FFF7CEFF01230BE013F0200F07D0FFF77BFF012304E0002302E0002300E0002323B3134B1B7813F075
:401C4000800F1FD1124B1B78124A12781343124A13701278D2B2934214D10C4B1B78DBB2094A127812F0800F07D1084B1B78DBB2054A1370137803F00F03044A1278D2B224
:401C80009342EAD108BD00BF286000408581FF1F9A81FF1F1582FF1F296000400022064B1A80064B9B682BB1044A916800230B7092685380704700BF1A82FF1F8C81FF1F23
:401CC00008B50F4B1B889BB213B9FFF757FE15E002220C4B1A7000220B4B1A70FFF7DEFF0A4AD179937943EA0123054A128892B2934201D2024A1380FFF7F4FD012008BD7B
:401D00008C81FF1F9E81FF1F9A81FF1F0060004008B504220B4B1A7080220B4B1A70FFF7BDFF0A4AD179937943EA0123084A128892B2934201D2064A13800B22054B1A70AE
:401D4000012008BD9E81FF1F9A81FF1F006000408C81FF1F8581FF1F0122094B1A700F3B9B7C084B1B7B03F00303934204D0054AD37B83F08003D3730122024B5A7370475E
:401D80000B600040A881FF1F02220A4B1A700F3B93F82230084B1B7E03F00303012B04D0054AD37E83F08003D3760122024B5A76704700BF0B600040A881FF1F704700BF25
:401DC00008B5FFF747FC08BD08B50C4B18780138C0B200F097F90A4B1B79DBB29A1C00EBC20042680749CB5C02EBC3035B68596A0B78054A1380516008BD00BF9D81FF1F50
:401E0000006000408881FF1F8C81FF1F08B50E4B18780138C0B200F075F90C4B1B79DBB29A1C00EBC20042680949CB5C02EBC3035B68DB69597813F8022B42EA01220549A3
:401E40000A804B6008BD00BF9D81FF1F006000408881FF1F8C81FF1F10B50022194B1A80194B18780138C0B200F04CF9174AD3781279D2B2911C00EBC10041680ABBDBB2B3
:401E80001348825C01EBC20149685A1ED2B2022A17D803F10053013B01EBC3000B4A9278D2B211F833309A420BD8406802EB4202910042185468034B5C60415A198092687A
:401EC0009A6010BD8C81FF1F9D81FF1F006000408881FF1F08B55B4B1A79D2B21B7813F0800F4DD0574B5B78013B052B00F28D80DFE803F0212B3B8B8B03524BDB78DBB27A
:401F0000212B09D1FFF760FF4F4B1B889BB2002B7DD0FFF7D5FE08BD4A4BDB78DBB2222B77D1FFF773FF484B1B889BB2002B72D0FFF7C6FE08BDFFF78FFF434B1B889BB2B3
:401F4000002B6AD0FFF7BCFE08BD002A67D13D4B9B7813F0FF0F64D13B4901230B803B4B1A444A60FFF7ACFE08BD002A5BD1364901230B80364B1A444A60FFF7A1FE08BDB7
:401F8000304B5B78DBB20A2B0DD00B2B2FD0092B4BD1FFF761FF2C4B1B889BB2002B46D0FFF7B6FE08BD002A43D1264B9B7813F0FF0F40D1234BDB78DBB224498B54895CDF
:401FC000C9B2244B9B5CDBB2994203D20021214B995409E01F4B9B5CDBB2012B04D91B4B9B5CDBB21B498B54FFF728FD08BD22BB144B9B78DBB2012B21D8124B9B78DBB25E
:4020000013498B54FFF71AFD08BD002008BD002008BD002008BD002008BD002008BD002008BD002008BD002008BD002008BD002008BD002008BD002008BD002008BD0020D2
:4020400008BD00BF006000408C81FF1F1C82FF1F2482FF1F2082FF1F08B500F06FFC08BD10B401233EE019461A010C242148845403EB4300820020480244527912F0FF0FC7
:4020800013D003EB430082001B480244127912F0800F04D01801194A024494700AE01801164A02440820907004E01801134A0244802090704800084482000F480244D4880B
:4020C000E4B208010B4901448C71D088C0F30720C871D088C0B20871D288C2F307224A710133DBB2082BBED9FF22054B1A7010BC704700BF70600040A881FF1FFC5F004050
:402100000A600040074B1A78074B03EBC2035B681A7C824204D9C0001030184440687047002070479881FF1F802B0000F8B5404B1B7813F0FF0F79D03D4B18780138C0B2B6
:40214000FFF7E0FF047AC2683A4B1878C0B200236AE01178884264D13749095CC9B25578A9425ED1917801F07F01D67806F00306DFF8C8E04D000D44AF000EEB07054FF048
:40218000000C85F803C092F802C085F804C092F803C00EF807C097882F8192F90250002D0DDA012E01D1072700E00D274E000E44B500224E35446F7101266E700CE0012EEB
:4021C00001D1052700E009274E000E44B5001B4E35446F7100266E70DFF868E00F010EEB07060125B57001FA05F529448D00134929440D89C5F307250EF807500D89EDB272
:402200007570CE88F6B20E4D3D44AE71CE88C6F30726EE71CE88F6B22E71C988C1F30721697108320133DBB2A34292D3F8BD00BF9D81FF1F9981FF1F8881FF1FA881FF1FE6
:4022400070600040FC5F0040034B1A78034B03EBC2035868704700BF9881FF1F802B000008B5084B18780138C0B2FFF74BFF30B142681279023200EBC203586808BD002090
:4022800008BD00BF9D81FF1F2DE9F041002310E06A4D5900CA189600AC190022AA55A270E2702281A272627034462C4462710133DBB2082BECD940B90AE000226049CA5467
:4022C0006049CA540133DBB200E00023002BF4D05D4B1B7813F0FF0F00F0AD805A4B18780138C0B2FFF70EFF4368DB7913F0400F05D0564A137843F00103137004E0534A8C
:40230000137803F0FE031370057A012464E0C16800235DE08A7802F07F02944255D1264604EB4407BA00454F3A44128992B28F88BA4207D204EB440E4FEA8E02DFF8FCE0BF
:40234000724417810A783E4FBA5CD2B24F78BA423BD191F802C0DFF8E4E07200324497000EEB070282F804C0CA780EF80720CA7802F0030291F90270002F13DA012A02D134
:402380004FF0070801E04FF00D08DFF8B0E0720002EB060C4FEA8C07774487F8058001267E7012E0012A02D14FF0050801E04FF00908DFF888E0720002EB060C4FEA8C0739
:4023C000774487F8058000267E7008310133DBB2AB429FD30134E4B2082C98D9C06800220CE0837803F07F0310F8084B03EB43039900124B19448C720132D2B2AA42F0D355
:40240000FFF72EFF124B1860002301210FE00B4D4A00501884002C44E380228992B213449BB203F0010213449BB20131C9B20829EDD9FFF715FEBDE8F08100BFA881FF1F19
:402440008881FF1F1882FF1F9D81FF1F9B81FF1FA481FF1F08B5154B1B7903F07F035A1ED2B2072A20D8590019448A0010490A44917841F0010191700021D170517841F0F9
:4024800002015170127912F0800F05D01B01094A1A448D23937004E01B01064A1A4489239370FFF7CBFA08BD002008BD00600040A881FF1FFC5F0040264B1B7903F07F0329
:4024C0005A1ED2B2072A43D810B5590019448A0021490A44917801F0FE0191700021D17019017F241D484454517801F0FD015170127912F0800F14D003EB43018A0016492D
:402500000A445278D2B2012A05D11B0102461A440C23937019E01B01104A1A440D23937013E003EB43018A000B490A445278D2B2012A05D11B01094A1A440823937004E08B
:402540001B01064A1A4409239370FFF777FA10BD0020704700600040A881FF1FFC5F004010B50E4B1C79E4B20D4B18780138C0B2FFF7C8FD43681B799C4201D9012C0AD838
:40258000084A135DDBB208490B55044B9B78DBB21355012010BD002010BD00BF006000409D81FF1F8881FF1F1882FF1F10B5944B1B78DBB20021934A118013F0800F00F09A
:4025C000AF808F4A5278D2B20A2A00F27581DFE812F06B00730173017301730173010B007301940073019C00854BDB78DBB2012B09D1FFF729FE4268824B5A6012221A80FC
:40260000FFF75EFB10BD7E4BDB78DBB2022B13D17B4B9878FFF776FD002800F04F814268784B5A605A68D1785A68927842EA01221A80FFF745FB10BD714BDB78DBB2032BE9
:4026400005D02EE00A7811440133DBB201E000236D496B4A9278D2B2934203D20A7812F0FF0FEFD1664B9B78DBB2EE2B00D16749634B9B7813F0FF0F07D0614B9B78DBB206
:40268000634A127C934200D162490B7813F0FF0F00F016810B785B4A13805160FFF710FB10BD00F053F910BD13F0030317D0022B40F0088153490B80514B1B7903F07F038E
:4026C00003EB43039A00544B1A449278D2B2534B1A7000225A704B60FFF7F2FA10BD494902230B804E4B1A78D2B24C4B1A7000225A704B60FFF7E4FA10BD424B01221A807F
:40270000484A5A60FFF7DCFA10BD3E4A012313803B4B1B7944490B445360FFF7D1FA10BD374A5278013A0A2A00F2CE80DFE812F04C00CC009700CC000B00CC00CC00CC0091
:402740001300CC0030002E4B9B78DBB2374A1370FFF774F910BD2A4B9B7803F0FF041BB1601EC0B2FFF7CEFC04B110B9002C40F0AD802C4B1B78DBB29C4206D0294B1C70B1
:4027800001202B4B1870FFF77FFDFFF757F910BDFFF7E6FE002800F09B80194A1379DBB21279D2B223490A70234AD25CD2B21E49CB5CDBB29A4204D001221D4B1A70FFF702
:4027C000B5FCFFF73BF910BD03F00303012B35D04BB1022B7ED10A4B9B7813F0FF0F7BD1FFF76AFE10BD064B9B78DBB2012B75D10B4A137803F0FD031370FFF71FF910BD0B
:40280000006000408C81FF1F502C00006C2B0000D02C0000442C0000A881FF1F7C81FF1F9B81FF1F9D81FF1F8881FF1F8481FF1F9C81FF1F9981FF1F1882FF1F2D4B1B79F5
:4028400013F0FF0F4CD12B4B98781B79DBB22A49CA5C22EA0002CA54FFF7F0F810BD03F00303012B17D04BB1022B3BD1214B9B7813F0FF0F38D1FFF7EDFD10BD1D4B9B7811
:40288000DBB2012B32D11D4A137843F002031370FFF7D4F810BD174B1B7913F0FF0F27D1144B98781B79DBB21349CA5C22EA0002CA54FFF7C3F810BD002010BD002010BD8B
:4028C000002010BD002010BD002010BD002010BD002010BD002010BD002010BD002010BD002010BD002010BD002010BD002010BD002010BD00600040A081FF1F9B81FF1FB6
:4029000008B50B4B1B7813F0800F0CD0084B5B78DBB2012B09D1074B074A5A6012781A80FFF7CEF908BD002008BD002008BD00BF006000408C81FF1F442B0000024B187827
:40294000C0F38010704700BF8F45004008B5124B1B7803F00303012B02D0022B04D00FE00D4B1B79DBB20CE00B4B1B7903F07F0303EB43039A00094B1A44937ADBB200E038
:402980000023074A1268D35C032B02D1FFF7A2FA08BD002008BD00BF00600040A881FF1FA481FF1F014B1868704700BF4481FF1F0E4B70B51E460E4C0025E41AA410A542B5
:4029C00004D056F8253098470135F8E700F08AF9084B094C1E46E41AA4100025A54204D056F8253098470135F8E770BDF02C0000F02C0000F02C0000F82C000010B5431EF9
:402A00000A44914204D011F8014B03F8014FF8E710BD03460244934202D003F8011BFAE770470000002E00008B00000000000000004F00400C0040510040300000000140DA
:402A4000001000140140000800400140000A004C0140000200500140200000007E020A4B11507C40EE08AF20B820BE10D804DF011F20E810EE0AE810EE0A33803640CC30C1
:402A8000A640A7806302A640A780D6401810A640A780AF01C610EE106080D8029C8008080F409C80C20CAE40AF80B410EE50AC08AF40B480E808000A01450040014F0040A3
:402AC000025200400107014001090140040A0140010B014002170140021901400340014002410140044201400643014002450140014601400447014004480140044C014089
:402B00000151014000EFEF000000000000CFCF00000000004000003C3C000000C000000000FFFF0000000000F00000FFFF0050000000000000FBFB00000000006910162E1F
:402B4000003201012800000000010400010000000000000000014359555342000000303030303100000000000000000012034D00530046005400310030003000010000009A
:402B800001000000882B000001000000D02C0000000000000000000001000000A02B000001000000A42C000002000000C42B000001000000D42B000000000000C02B0000EB
:402BC000030000000000010340000300000082034000030001000000DC2B000000000000102C000000000000042C00000000000000000000010000001C2C00000100000005
:402C0000B62C0000410000007082FF1FB482FF1F410000002C82FF1F2882FF1F240005010900A1000900A1000900150025FF7508954091020900150025FF7508954081027C
:402C4000C0C000000A0330003000300031000000040309042C0343007900700072006500730073002000530065006D00690063006F006E0064007500630074006F0072005B
:402C80002203500053006F0043003300200042006F006F0074006C006F006100640065007200000009022900010100801909040000020300000209211101000122240007CF
:402CC000050103400001070582034000010000001201000200000008B4041DB70130010280014300F8B500BFF8BC08BC9E46704751000000B1030000F8B500BFF8BC08BCAF
:402D00009E4670472D000000182D0000C880FF1F8000000070010000000000000000C05D80BB000030000000006CDC02242A0000282A0000000000000000000000000000BD
:402D40000000000000000000000000000000000000000000E22C00000000000000000000000000000000000000000000000000000000000000000000000000000000000045
:402D80000000000000000000000000000000000000000000E480FF1F0000000000000000000000000000000000000000000000000000000000000000000000000000000091
:402DC00000000000000000000000000000000000000000000000000000000000000000000000000000000000000000000000000000000000000000000000000000000000D3
:402E000000800020112E0000F54A0000F54A000008B501F08FFE00BF10B5054C237833B9044B13B10448AFF300800123237010BDA081FF1F00000000B8960000084B10B5F4
:402E40001BB108490848AFF300800848036803B910BD074B002BFBD0BDE81040184700BF00000000A481FF1FB8960000C880FF1F00000000024A136801331360704700BF49
:402E8000BC81FF1F08B5044A53680133536003F03FFD03F0B7FC08BDBC81FF1F10B5094C682363700023A370074BE361074B2362074B6362204600F0FBFD204600F026FE1B
:402EC00010BD00BF9884FF1F093D0000593D0000953D000008B509480B234371052383710223C371112202710D2242738373C3731523037300F05EFE08BD00BF9884FF1F8B
:402F000008B50249012000F0ABFE08BD9884FF1F08B50B4B1B7A012B06D1002003F054FE012003F0D9FB07E033B9002003F0D4FB044B187803F048FE012003F047FC08BDEF
:402F4000BC81FF1FCC80FF1F08B50249024800F0B9FE08BD9884FF1FC681FF1F08B5044B044A0549072000F047FE002008BD00BF9884FF1F8482FF1F7882FF1F08B502F062
:402F800037FA40B102F018FC40B1054802F02CFC044B188008BD4FF6FF7008BD002008BD9483FF1F9484FF1F10B502F011FC0028FBD0064A064CD36812690649204604F064
:402FC00047FB204600F0E4F910BD00BFBC81FF1F9082FF1FC096000070B505460E4602F0F7FB0028FBD0054C33462A460449204604F02EFB204600F0CBF970BD9082FF1FD3
:40300000C096000008B503F01BFC024B024A02FB003008BD00CA9A3B18FCFFFFF0B587B0FFF7F0FF0546134B5E6802F0D1FB0028FBD0114BB3F90020B3F90210B3F90400C0
:403040000E4BB3F90070B3F902E0B3F904300C4C0593CDF810E0039702900191009233462A460849204604F0F3FA204600F090F907B0F0BDBC81FF1F7882FF1F8482FF1F1D
:403080009082FF1FCC9600002DE9F04182B007468846FFF7B7FF05460A4B5E6802F098FB0028FBD0084CCDF80480009733462A460649204604F0CCFA204600F069F902B06A
:4030C000BDE8F081BC81FF1F9082FF1FEC96000070B5FFF797FF0546084B5E6802F078FB0028FBD0064C33462A460649204604F0AFFA204600F04CF970BD00BFBC81FF1FD1
:403100009082FF1F0097000070B596B001227F4B1A707F4803F006FB03F012FB00F022F902F094FA01F0CAFD03F0BCFB794803F0E1FBFFF7B3FEFFF7CDFEFFF7E1FE03F07E
:40314000D1FC7549002003F0DBFC03F051FC03F081FD002001F060FD002001F051FD002001F042FD62B601E000F002F902F030FB0028F9D003F01CFB684600F08DFE03A93B
:40318000684601F049FB024650B1604C6349204604F05EFA204600F0FBF80A2003F0C8FB002400F0E5F8FFF7D9FEFFF7CDFEFFF735FF04E000225A4B1A75FFF7F5FE584B41
:4031C0001B7D012BF6D002F0DDFA002800F09580FFF7D4FE534B1880534B1B78504A5375C3F3401503F00F0250490A700A2A02D90A214E4A1170C3F300114C4A5170C3F375
:40320000801309282FD173B3454B00229A61DA61474B07E04248866913F8011B41EA062181610132032AF5DD002107E03C48C66913F8012B42EA0622C26101310329F5DDA4
:4032400003F0D2FA364B9B693A48A0FB03308009394B984200D9184603F0EAFA304BDA695A6003F0B9FA314B5B78002B37D072B62E4B9B78CBB100222C4B9A70284B1D7251
:403280001B7D012B09D1264B1A691A62DA685A6200221A75012283F8282062B6FFF738FE1F4A1368FA33D36219E01D4AD36A12689B1A002B0DDC00221C4B9A70184E357261
:4032C00062B6FFF725FE3368FA33F362FFF700FF05E062B62946154B1878FFF7D5FE104B93F828303BB10E4D696A286AFFF774FE002385F828300134E4B2C4F3400001F069
:403300007FFCC4F3800001F06FFC4AE79082FF1F3D330000852E0000752E00000C970000BC81FF1F7482FF1F9483FF1FCC80FF1F9583FF1FD34D62103F420F0038B5074C0F
:40334000012584F830502575FFF75CFE20616368E360034B9D7003F0F3F938BDBC81FF1FCC80FF1F08B50121002002F009F808BD08B502F043F830B102F03AF828B102F04D
:4033800065F9012008BD002008BD002008BD00BF10B5044602F02CF828B302F019FAC8B1114B1B881BB90BE001330F4A13800E4B1B88C3F50072012A02D92278002AF3D130
:4033C000204602F08FF90022074B1A8010BD0133054A1380044B1B88C3F50072012A02D92278002AF3D110BDFC81FF1F40B1C2694AB1026A52B1436A5BB94FF0FF3070477E
:403400004FF0FF3070474FF0FF3070474FF0FF3070470020704700BF0222C271082343711021017103218171C2734373142303730023837343688360C3680361704700BF54
:403440004B790F2B0BD84A7A93420BD0027802F0F00203F00F0313430370002070476FF00300704700207047CB79022B08D8CA7A934208D0037803F08F0303700020704778
:403480006FF0030070470020704700BF8B790C2B0BD88A7A93420BD0027802F0F00203F00F0313430370002070476FF003007047002070474B7B0D2B0BD84A7C93420BD041
:4034C000027802F0F00203F00F0313430370002070476FF00300704700207047CB7B022B09D8027802F0CF021B0103F0300313430370002070476FF0030070478B7B042B18
:403500000BD88A7C93420BD0027802F0F80203F0070313430370002070476FF003007047002070472DE9F04100AF14469E4693F82A3013449BB2DA1D22F00702ADEB020D89
:40354000BEF1000F20D00E466D46DEF81C80B8F1000F1CD0F4B19EF80220012A01D140F080002A4601469EF80100C047014638B16FF0010110E0EA5CF25401339BB200E0B3
:403580000023A342F7D307E04FF0FF3104E04FF0FF3101E06FF00B010846BD46BDE8F08138B504460D460B46022201464020FFF7B9FF034680B929462046FFF741FF0346B3
:4035C00050B929462046FFF74FFF034620B92946601CFFF75BFF0346184638BD38B504460D460B46022201464220FFF79BFF034680B929462046FFF75DFF034650B929460E
:403600002046FFF76BFF034620B92946601CFFF775FF0346184638BD00B583B002A9002301F8013D034601220220FFF77BFF9DF80730C3F34303012B06D0022B07D0032BCA
:4036400008D0072B0BD108E06FF0050007E06FF0060004E06FF0070001E06FF0080003B05DF804FB30B585B005460C460023019302938DF80C301346821D01A91220FFF7A5
:4036800051FF48BB02469DF805301B021BB29DF804100B4323809DF807301B021BB29DF806100B4363809DF809301B021BB29DF808100B43A380032D0BD19DF80A009DF879
:4036C0000B309DF80C10090441EA03230343A36004E00023A36001E06FF00102104605B030BD00BF10B584B00C4613460021009101910291CDF80B1010BB062269460C200A
:40370000FFF710FF0146002846D19DF801301B021BB29DF80020134323809DF803301B021BB29DF80220134363809DF805301B021BB29DF804201343A3800023A36030E0E2
:4037400002460C3269460C20FFF7ECFE014630BB9DF801301B021BB29DF80020134323809DF803301B021BB29DF80220134363809DF805301B021BB29DF804201343A380F0
:403780009DF80C009DF80D309DF80E20120442EA03230343A36004E06FF0010101E06FF00101084604B010BD70B584B006460D4614460022009201920292CDF80B2000F1BE
:4037C0000C0269460C20FFF7ADFE002843D102469DF801301B021BB29DF800100B4323809DF803301B021BB29DF802100B4363809DF805301B021BB29DF804100B43A3801D
:403800009DF807301B021BB29DF806100B432B809DF809301B021BB29DF808100B436B809DF80B301B021BB29DF80A100B43AB80032E0CD19DF80C009DF80D309DF80E107A
:40384000090441EA03230343AB60A36005E00023AB60A36001E06FF00102104604B070BD2DE9F843002B34D00546894690461E461C6A002C30D0002A31D09B78012B01D144
:4038800000F07F05337A112B02D0337C152B19D143464A4629467078A0470746736A0120984714E0376A012309EB040229467078B84707460135EDB2736A01209847013442
:4038C000E4B201E000242746A3B29845EAD85FB108E04FF0FF3707E04FF0FF3704E06FF00B0701E06FF001073846BDE8F88300BF10B582B0044602A8002320F8043D21463B
:40390000FFF74EFE0346B0B92346012201A94020FFF7A6FF034670B963796372E379E372234601220DF105014120FFF799FF034608B9A279A272184602B010BD10B582B002
:40394000044602A8002320F8043D2146FFF746FE0346B0B92346012201A94220FFF780FF034670B9637B6374E37BE374234601220DF105014320FFF773FF034608B9A27B19
:40398000A274184602B010BD30B583B004460D4600238DF807300B46012201464020FFF7C1FD034628BB2A79122A14D1237863F07F0323702B46012221464020FFF750FF1E
:4039C0000346B0B92B4602220DF107015820FFF747FF03460DE0227812F0800F09D002F07F0222702B46012221464020FFF738FF0346184603B030BD30B583B000238DF8F8
:403A000007300279A2F11003DBB2022B1AD8037A9A421AD0044601460DF10700FFF7B4FF054698B923460122211D7E20FFF718FF0546237A102B02D1636A0520984723798C
:403A4000237203E06FF0030500E00025284603B030BD00BF38B5027BA2F11403DBB2012B01D9172A1DD1037C9A421DD004460346012200F10C017E20FFF7F2FE0546237C55
:403A8000142B03D1636A5120984707E0172B05D1237B152B02D1636A0A209847237B237403E06FF0030500E00025284638BD00BF30B583B0B6238DF80730F0B10446436A65
:403AC000F3B1034601220DF107017E20FFF7C8FE0546636A0120984755B9A378012B07D1234601220DF107017F20FFF71BFD054645B92046FFF790FC04E04FF0FF3501E069
:403B00004FF0FF35284603B030BD00BF30B583B00446FFF76BFCA378012B03D1012284F82A2002E0002284F82A2040B9012B06D1234601220DF107017F20FFF7F3FCF8B9F5
:403B400000232370032206E02346012221460020FFF7E8FC2A46531EDDB212B12378D12BF2D140B92378D12B08D1FF23E3702046FFF79EFF04E06FF0020001E06FF00200AC
:403B800003B030BD60B1426A6AB110B50446FFF733FF034658B92046FFF75CFF034606E04FF0FF3301E04FF0FF3318467047184610BD00BFB0B1426ABAB110B50446FFF7D7
:403BC00097FE0346A8B92046FFF7B8FE034680B92046FFF7D7FF034658B92046FFF71CFD034606E04FF0FF3301E04FF0FF3318467047184610BD00BF38B500F0030510F01B
:403C0000040F01D1002000E00320B3B11446022D08D0032D0CD0012D12D1A1B11A46FFF721FD38BD92B11A462146FFF75BFD38BD7AB189B1FFF7B8FD38BD4FF0FF3038BD2A
:403C40006FF0040038BD4FF0FF3038BD4FF0FF3038BD4FF0FF3038BD4FF0FF3038BD00BF30B583B005460C4600238DF807300846FFF7BCFB08BB234601220DF107017B2022
:403C8000FFF750FC0346D0B9012D07D1ED00EDB29DF807301D438DF8075005E09DF8073023F008038DF80730234601220DF107017B20FFF7D5FD034601E04FF0FF331846DD
:403CC00003B030BD30B583B005460C4600238DF804308DF805300846FFF788FB78B92346022201A97820FFF71DFC024648B99DF804309DF8051043EA01232B8001E04FF02B
:403D0000FF32104603B030BDF8B504460F4616461D46002101F04EF910B9384601F0DCF90121204601F086F9074670B110E06B1E9C4204DA012001F0FBF9305503E00020C2
:403D400001F0F6F93055013400E00024AC42EEDB01F0A6F978B2F8BDF8B50C4617461E46002101F027F9054678B9204601F0B4F9054638B109E0385D01F0AEF9054620B99F
:403D8000013400E00024B442F5DB01F089F968B2F8BD00BF08B502F0CBFD08BDF8B504460F4616461D46002101F004F910B9384601F092F90121204601F03CF9074670B1CE
:403DC00010E06B1E9C4204DA012001F0B1F9305503E0002001F0ACF93055013400E00024AC42EEDB01F05CF978B2F8BDF8B50C4617461E46002101F0DDF8054618B92046F1
:403E000001F06AF905463DB109E0385D01F064F9054620B9013400E00024B442F5DB01F03FF968B2F8BD00BF5AB138B51C46134651B164B165686DB10A4601462078A8477C
:403E400038BD4FF0FF3070474FF0FF3038BD4FF0FF3038BD4FF0FF3038BD00BF72B138B51C46134669B17CB1A56885B10A4601462078A84770B16FF0010038BD4FF0FF30E9
:403E800070474FF0FF3038BD4FF0FF3038BD4FF0FF3038BD38BD00BF70B596B00446602303702D4B43602D4B83604C252A46002103A802F054FF01238DF808300022ADF8B3
:403EC0000A20029A079202228DF808200299089123490868009088888979ADF804000098CDF82500BDF80460ADF829608DF82B108DF800200098CDF83600ADF83A608DF8B2
:403F00003C108DF82E308DF83F208DF83D202D218DF83E108DF84B308DF8422078228DF8402040F2FF32ADF846208DF82C3026218DF82D108DF83030ADF8342055228DF8D3
:403F40002F208DF84E302A4603A904F10C0002F0FBFE16B070BD00BF9D3D0000ED3D000028970000C309CB71C0F380138B71C0F340134B71C0F300130B71C0F3C003CB7073
:403F8000C0F380038B70C0F340034B7000F0010008707047C0F380134B73C0F340130B73C0F30013CB72C0F380038B72C0F340034B7200F001000872704700BF01B330B514
:403FC00083B00D460446034601220DF107010020FFF72AFFB8B9234601220DF106011046FFF722FF044678B929469DF80700FFF7B9FF29469DF80600FFF7CCFF204603E089
:404000004FF0FF307047FFE703B030BD0870704791B130B583B00D46034601220DF107010220FFF701FF044648B929469DF80700FFF7ECFF204602E04FF0FF30704703B018
:4040400030BD00BF488070478B7843EA00204880704700BF59B30A4609784B1EDBB2012B28D870B582B0012901D1042600E0062615460446034601220DF107013046FFF77C
:40408000D3FED0B9234601220DF10601B018FFF7CBFE044690B929469DF80700FFF7D2FF29469DF80600FFF7CFFF204606E04FF0FF3070476FF002007047FFE702B070BD0D
:4040C0000870704791B130B583B00D46034601220DF107010F20FFF7A7FE044648B929469DF80700FFF7ECFF204602E04FF0FF30704703B030BD00BF43094B70C0F30013D8
:404100008B70C0F3C003CB70C0F380030B71C0F340034B7100F0010088717047E1B103460A460878411EC9B2012918D830B583B0012801D1102000E01520144601220DF15C
:404140000701FFF771FE054660B921469DF80700FFF7D2FF284605E04FF0FF3070476FF00200704703B030BD002935D0F0B583B00C4609784A1ED2B2012A30D86278072A71
:4041800030D8A779012F30D8012901D1102500E015252146034654018A78100164B200F01002CE78F600224306F008060C79A400324304F0040449794900224301F0020181
:4041C0000A4307F001073A4302A901F8012D01222846FFF743FE0AE04FF0FF3070476FF0020004E06FF0020001E06FF0020003B0F0BD00BFC1B103460A460878411EC9B2E1
:40420000012914D810B582B0012801D1112000E01620144601220DF10701FFF705FE48B99DF80720627005E04FF0FF3070476FF00200704702B010BDB9B103460846097801
:404240004A1ED2B2012A13D84278092A13D900B583B0012901D1112000E0162002A901F8012D0122FFF7FAFD08E04FF0FF3070476FF0020070476FF00200704703B05DF811
:4042800004FB00BFC1B103460A460878411EC9B2012914D810B582B0012801D1122000E01720144601220DF10701FFF7BDFD48B99DF80720627005E04FF0FF3070476FF05F
:4042C0000200704702B010BDA9B103460A460878411EC9B2012911D800B583B0012801D1122000E01720527802A901F8012D0122FFF7B4FD05E04FF0FF3070476FF0020029
:40430000704703B05DF804FB71B30A4609784B1EDBB2012B2BD870B582B0012901D1132600E0182615460446034601220DF107013046FFF779FDE8B9234601220DF10601D0
:40434000B018FFF771FDB0B99DF80720C2F302116970C2F38101A970120202F440729DF806100A43AA8006E04FF0FF3070476FF002007047FFE702B070BD00BFB9B330B525
:4043800083B00B460D786A1ED2B2012A32D84978072932D89A78032A32D89B88B3F5806F31D2012D01D1132500E018250446090101F07001920002F00C020A43C3F30121F0
:4043C0000A438DF807208DF80630034601220DF107012846FFF742FD10F0FF0F15D1234601220DF10601A818FFF738FD0DE04FF0FF3070476FF0020007E06FF0020004E0E5
:404400006FF0020001E06FF0020003B030BD00BF00F001034B70C0F30013CB70C0F380030B70C0F380108870704700BF91B130B583B00D46034601220DF107011A20FFF719
:40444000F3FC044648B929469DF80700FFF7E0FF204602E04FF0FF30704703B030BD00BF21B330B583B00A464C78012C21D8C978012921D81578012D21D823D8034604F0E0
:404480000100090101F01001AC00014304F0040492789201214302F040020A4302A901F8012D01221A20FFF7D9FC0DE04FF0FF3070476FF0020007E06FF0020004E06FF089
:4044C000020001E06FF0020003B030BD99B110B582B00C46034601220DF107011B20FFF7A3FC58B99DF80720C2F38011217002F03F02627002E04FF0FF30704702B010BDD4
:40450000A9B110B582B00C464A783F2A12D8034602F03F012278920102F040020A4302A901F8012D01221B20FFF798FC04E04FF0FF3070476FF0020002B010BD71B110B510
:4045400082B00C46034601220DF107011C20FFF76BFC30B99DF80720227002E04FF0FF30704702B010BD00BF81B100B583B00A788DF80720013AD2B2012A0AD803460122B0
:404580000DF107011C20FFF769FC04E04FF0FF3070476FF0020003B05DF804FB21B310B582B00C46034601220DF107011D20FFF73BFCE0B99DF80730D9092170C3F38011D5
:4045C0006170C3F34011A170C3F30011E170C3F3C0012171C3F380016171C3F34001A17103F00103E37102E04FF0FF30704702B010BD00BF38B504460D46FFF7DFFC10F0B4
:40460000FF0F7CD105F10E012046FFF701FD10F0FF0F74D105F110012046FFF71BFD10F0FF0F6CD105F114012046FFF713FD10F0FF0F64D105F118012046FFF743FD10F042
:40464000FF0F5CD105F119012046FFF767FD10F0FF0F54D105F120012046FFF7CBFD10F0FF0F4CD105F122012046FFF70BFE10F0FF0F44D105F124012046FFF745FE10F03B
:40468000FF0F3CD105F12A012046FFF747FD10F0FF0F34D105F131012046FFF7ABFD10F0FF0F2CD105F133012046FFF7EBFD10F0FF0F24D105F136012046FFF725FE10F0B7
:4046C000FF0F1CD105F13C012046FFF7AFFE10F0FF0F14D105F140012046FFF7F7FE10F0FF0F0CD105F142012046FFF727FF10F0FF0F04D105F143012046FFF74FFF38BDA6
:4047000069B330B583B003460A78D20155B24878820102F040028C7864012A4304F02004C8780001224300F010000C79E400024304F008044D79AD00224305F004058C790C
:4047400064002A4304F00204C97922430A4302A901F8012D01221D20FFF780FB02E04FF0FF30704703B030BD38B505460C461931FFF7FAFC10F0FF0F4CD104F120012846C1
:40478000FFF75AFD10F0FF0F44D104F122012846FFF79AFD10F0FF0F3CD104F124012846FFF7ECFD10F0FF0F34D104F12A012846FFF7DAFC10F0FF0F2CD104F131012846E7
:4047C000FFF73AFD10F0FF0F24D104F133012846FFF77AFD10F0FF0F1CD104F136012846FFF7CCFD10F0FF0F14D104F13C012846FFF736FE10F0FF0F0CD104F140012846E5
:40480000FFF77EFE10F0FF0F04D104F143012846FFF776FF38BD00BF70B506460D460C46022304F8423F2146FFF79EFE10F0FF0F25D10A2002F07CF829463046FFF7BEFB84
:4048400010F0FF0F1BD129463046FFF78DFF10F0FF0F14D10A2002F06BF8012385F8423021463046FFF780FE10F0FF0F07D10A2002F05EF806F10C013046FFF7BBFE70BD53
:40488000FEE700BFF0B40022174611E050F82760F3B226F0FF0608E001EB420511F812406D78A5550132013BDBB2002BF4D101371F2FEBD9F0BC7047064B1B78DBB203F05F
:4048C0000701054A11701B09013213704422034B1A707047CF0100496E5800407658004008B50A46002102F03AFA08BD38B52F22314B1A80182331490B7002310A80304A10
:404900001370BF21023211800232137040F2DF11023211800232137040F65F1102321180023213704BF67F3102321180023213700622244B1A705222A3F580731A70224B54
:404940001B78DBB2214A13704FF4E262204B1A8041F25122023B1A80002419250CE01D4B1B7803F0010343EA440404F003044FF4F07002F07DF9013D0DB1032CEFD115B9AC
:404980000320FFF77DFF144A4FF48073138007231370002311490B7048200231087013700532137002220E4B1A700E4A137843F03F03137038BD00BF8040004082400040AE
:4049C00086400040004300400F010049A14600402242004025420040044000400640004001400040A243004008B502F0ADF908BD38B572B600240CE0314D630019194A0017
:404A000011462A44084691882858FFF769FF0134E4B2072CF0D92B4C04F180012046FFF731FF294A137843F0020313701032137843F002031370254D2B7843F040032B70C5
:404A4000A2F58632513A137843F010031370082204F544711E48FFF7C7FF0A2204F546711C48FFF7C1FF0A2204F549711A48FFF7BBFF082204F54C711848FFF7B5FF0A2211
:404A800004F54E711648FFF7AFFF0A2204F551711448FFF7A9FF144A137843F008031370124C61232370FFF721FFC1232370FFF703FF0E2229460E48FFF796FF38BD00BF83
:404AC00038970000C005004803500140A043004002510040C0510040F05100401251004020510040305100402243004000480040B043004008B502F0FBF803680C2B00D134
:404B0000FEE7FEE708B5094B1A681044084BC31AB3F5007F02DC054B186005E002F0E8F80C2303604FF0FF32104608BDD080FF1FB885FF1F08B5104E104D16E029686B6858
:404B4000AC68002204E051F8040B43F8040B0432A242F8D1E868002203E0002143F8041B04328242F9D11035013E002EE6D102F0C5F8FEF7C9FAFEE701000000609A000052
:404B800008B5104A104B1A60104A136843F40073136000230AE0032B03D80D4A52F8231000E00C490C4A42F8231001332F2BF2D90A4B1A780A4B1A70074A0A4B1A60FFF700
:404BC00017FF08BD0004FA050CED00E014ED00E0002E0000F54A00000080FF1FBC760040C080FF1F08ED00E0044A137803F0BF03800100F0400018431070704720510040EB
:404C0000044A137803F0DF03400100F0200018431070704720510040044A137803F0EF03000100F010001843107070472051004010B50222114B1A7081220E3B1A700822C1
:404C400002331A701E2211331A70002401331C704FF400420A4B1A6007210F2001F0B0FE08490F2001F098FE1022074B1A70074B1C70074B1C70074B1C7010BDD64900405E
:404C800080E100E0E54C0000C484FF1FCA84FF1FCC84FF1FC884FF1F08B501F0F1FF064A137843F0040313701032137843F00403137001F0E9FF08BDA543004008B5074B43
:404CC0001B7823B9FFF7B4FF0122044B1A70FFF7E3FF4FF40042024B1A6008BD4482FF1F00E100E038B5A54B1C78A54B1B7813F0400F00F03A81E4B214F0010F00F01D81E9
:404D00009F4B1B78453B052B00F21481DFE813F006008200120112010600DF0004F0DF0504F00A04082C42D1954B1B78DBB2452B35D1944B1B7813F0FF0F10D0924B1B6808
:404D40001B78DBB2914A137004228C4B1A7001228F4B1A7046228A4B1A702C46EDE08D4B1B7813F0020F0DD08B4A137843F00A0313706022824B1A704FF40042874B1A6078
:404D80002C46DAE0864A137843F0100313701022844B1A700422023B1A702C46CDE00022764B1A704A22764B1A702C46C5E00A2C2BD1794A137843F0A0031370754B1B78A5
:404DC00013F0020F14D06E4B1B7813F0080F01D0092300E00A23704A11780B4313706022674B1A704FF400426C4B1A602C46A4E06B4A137843F0100313701022694B1A7054
:404E00000422023B1A702C4697E0002001F08EFD2C4692E014F0020F36D15D4B1A78D2B2584B1B78DBB29A4210D2594A1378DBB255490968CB5CDBB254490B7004214F4B6C
:404E4000197013780133DBB2137076E0514B1B7813F0020F0CD0504A137843F00A0313706022474B1A704FF400424C4B1A6064E04B4A137843F0100313701022494B1A70CC
:404E80000422023B1A7058E0424B1B7813F0020F0CD0414A137843F09A0313706022384B1A704FF400423D4B1A6046E03C4A137843F01003137010223A4B1A700422023B9A
:404EC0001A70354A137843F09003137035E0364A1378DBB2354908682C490978C9B2C15413780133DBB213701278D2B2304B1B78DBB29A4203D21022204B1A701DE0254BF7
:404F00001B7813F0020F0CD0234A137843F00903137060221A4B1A704FF400421F4B1A600BE01F4A137843F0100313700022134B1A7002E0002001F0F9FC14F0200F1CD0A1
:404F40000F4B1B7813F0080F01D0012300E00223114A11780B431370114A137803F0EF0313701022064B1A7038BD054B1B7813F0100F02D11022024B1A7038BDD7490040F5
:404F8000C484FF1FCB84FF1FD084FF1FD8490040C884FF1FC984FF1FCA84FF1F80E100E0D6490040D9490040CC84FF1FD484FF1FD884FF1F1A4B1B78DBB2102B29D1194B8C
:404FC0001B7813F0080F26D14FF40042164B1A604000C0B229B140F001004922104B1A7002E045220E4B1A70104B1870012201331A700F4B1B7813F0010FFAD00C4B1B78FC
:4050000003F00A030A2B08D11022054B1A700320704702207047012070470020704700BFC484FF1FD949004080E100E0D8490040D7490040164B1B7813F0040F23D040002E
:40504000C0B229B140F001004922124B1A7002E04522104B1A70104B1870122201331A700422023B1A700D4B1B7813F0010FFAD00A4B1B7803F00A030A2B06D11022054B33
:405080001A7003207047022070470020704700BFD9490040C484FF1FD8490040D74900400A4B1B7813F0040F0ED01023074A13700421023A1170064A1370064B1B7813F015
:4050C000210FFAD00020704702207047D9490040C484FF1FD7490040114B1B7813F0040F1BD0104B18700422013B1A7046220E4B1A700E4B1B7813F0010FFAD00B4B1B7822
:4051000013F0020F04D16022074B1A70002070476022054B1A70032070470220704700BFD9490040D8490040C484FF1FD7490040114B1B7813F0040F1BD0104B1B78DBB28F
:40514000492B05D100220E4B1A704A220B4B1A700B4B1B7813F0010FFAD00A4B1B78DBB218B11021064A117004E06021034A117000E0002318467047D9490040C484FF1F7B
:40518000D7490040D8490040F8B501F079FD0746404A137843F0010313701032137843F00103137001263C4B1E700225943B1D7002F5E2521B32137803F07F03137000209D
:4051C00001F0CCFB354C237803F0F9032370344A137803F0DF031370237833432370304601F0BCFB282001F0B9FB2E4B1A7802F07F021A701A7802F0BF021A7023782B4369
:405200002370284601F0AAFB237843F0040323700024254B1C7001331C70384601F034FD0721172001F0CCFB2049172001F0B4FB0721182001F0C4FB1D49182001F0ACFB52
:405240000721152001F0BCFB1A49152001F0A4FB0721204601F0B4FB1749204601F09CFB0721304601F0ACFB1449304601F094FB0721284601F0A4FB1149284601F08CFB96
:4052800007210C2001F09CFB0E490C2001F084FBF8BD00BFA54300409D6000409443004012600040F851004084600040815D0000695B00007D5D0000DD5C00000D5D0000B1
:4052C000415D0000895D000008B5214B18700023204A1370204A1370204A1370204A1370204A1370204A1370204A1370204B4FF400021A604FF080721A604FF400121A6037
:4053000001221A6002221A6004221A6011B1012906D00BE0174A137803F0FE0313700AE0144A137843F00103137004E0114A137803F0FE03137003220F4B1A708022203BAE
:405340001A70012001F094FC04220C4B1A7008BDF584FF1FF884FF1F1485FF1F1785FF1F0C85FF1F1685FF1F1985FF1FF484FF1F00E100E0096000402860004012600040F5
:4053800038B504460D46064B1B7823B9FFF7FCFE0122034B1A7029462046FFF795FF38BD4582FF1F00230A4A13700A4A13700A4A13700A4A13700A4A13700A4A13700A4AFE
:4053C00013700322094B1A708022203B1A707047F884FF1F1485FF1F1785FF1F0C85FF1F1685FF1F1985FF1FF484FF1F28600040014B1878704700BF1785FF1F064B1B786C
:4054000013F0FF0F05D0044B1878C0B200221A7070470020704700BF1485FF1F00EB40008300024A13445878704700BF1C85FF1F431EDBB2072B0BD8064B00011A18185C34
:4054400000F00F00537843EA0020023880B2704700207047FC5F0040431EDBB2072B3CD8F0B4074600EB4004A3001C4C2344DB889BB2C3F500739A4208D900EB4002930062
:405480002344DA8892B2C2F5007292B200EB4004A300124C2344DB7843EA1223104D04012E192B55D3B2737039B909E0CE5C3D010C4C665501339BB200E000239A42F5D812
:4054C000420002449300054A134400225A705A79D2B20001044B1A54F0BC70471C85FF1FFC5F004078600040FE5F0040431EDBB2072B0BD8420002449300054A1344002292
:405500005A705A79D2B20001024B1A54704700BF1C85FF1FFE5F004070B5D9B1054614460E46C8B1082819D8FFF782FFA04203D22846FFF77DFF0446002305E02901094A9D
:40554000525CF25401339BB2A342F7D32846FFF7CDFF04E0002402E0002400E00024204670BD00BF786000400246002001E0013080B2135C002BFAD1704700BF10B4FF24ED
:4055800000230EE0094AD25C02EB42029100084A11448A7AD2B2824201D11C4602230133DBB2012BEED9204610BC7047E484FF1F1C85FF1F10B5204C2079FFF7DFFF237830
:4055C00013F0800F0ED06378DBB2212B2FD11B4B07221A80C0EBC000194A1044586000F031FB10BD144B5B78DBB2202B02D0222B10D01EE0114A07231380C0EBC0031049B5
:405600000B4453600F4A135C43F00103135400F041FB10BD084B9B780B4A22F81030094A135C43F00203135400F0CAF910BD002010BD002010BD00BF006000400085FF1F37
:40564000D480FF1FDC84FF1FF084FF1F10B500241F4B1C701F4B1C705C700AE01E4B185DC0B2431EDBB2072B01D8FFF73FFF0134E4B2012CF2D9194B1B7813F0FF0F1AD0EB
:40568000154B1B7813F0FF0F17D0154B1B7813F0FF0F14D0114B1B78DBB2082B11D80E4B1B78DBB2082B0ED80D4B1B78DBB2082B0BD8002010BD012010BD012010BD012075
:4056C00010BD012010BD012010BD012010BD00BF4682FF1FDC84FF1FE884FF1FE084FF1FE484FF1F2DE9F8438046234B1B78234AD65CF6B2FFF738FF05460027344606EBF5
:40570000460293001E4A13441B899BB29D4209D906EB460293001A4A1344B3F808901FFA89F900E0A9464A4608EB07013046FFF793FEC9EB0505ADB245B906EB460293007A
:405740000F4A13441B899BB2994510D14F44BFB204EB440293000A4A13445B7813F0FF0FF6D025B9002211463046FFF775FE002DC4D1BDE8F88300BF4682FF1FE084FF1F69
:405780001C85FF1F08B5094B1B78094AD05CC0B200EB40029300074A13445B78DBB2012B02D1FFF745FE08BD002008BD4682FF1FE884FF1F1C85FF1F08B5034B1B78034AD1
:4057C000D05CFFF72BFE08BD4682FF1FE884FF1F08B5034B1B78034AD05CFFF71FFE08BD4682FF1FE084FF1F08B5084B1B78084AD35CDBB203EB43018A0006490A4412892D
:4058000092B201461846FFF787FE08BD4682FF1FE884FF1F1C85FF1FC37803F0030390F9020000280FDA032B06D002F001030B48C15442F001020EE0C2F380030848C1541E
:4058400042F0040207E0032B05D0C2F340030548C15442F002021046704700BFE084FF1FE484FF1FE884FF1F1D4B19781D4A13889BB20B449BB2138000220FE01A494B687A
:405880001B78DBB2194883544B6801334B600132D2B20B889BB2013B9BB20B80124B1B889BB20BB1072AE9D90D4B1B78DBB2082B00D05AB10E490B7883F080030B700F2156
:4058C0000C4B197002210C4B197004E0022309490B7009490B70094B1A70014B1A707047F484FF1FF684FF1F0085FF1F006000408A85FF1F1585FF1FF884FF1F1885FF1F0C
:405900000222074B1A708022064B1A700F22064B1A700023054A1370054A137001207047F884FF1F8A85FF1F1585FF1FF484FF1F1885FF1F08B5FFF797FF08BD10B4194B39
:40594000197801F00F010239C9B2174A13889BB20B449BB21380002011E0144A5468144B1B5CDBB223705368013353600130C0B20139C9B213889BB2013B9BB213800B4BF2
:405980001B889BB20BB10029E7D10A4B19700A4A137883F0800313700B22084B1A7010BC704700BF29600040F684FF1F0085FF1F006000401885FF1F8A85FF1F1585FF1F94
:4059C0000623064A1370064A13708022054B1A700022054B1A700120704700BFF884FF1F1585FF1F8A85FF1F1885FF1F064B9B6843B1054B9A6810709A68044909885180C4
:405A000000229A60704700BF0085FF1FF684FF1F08B5134B1A78D2B21A701B78DBB213F0800F02D00F4A137008BD0220FFF7DEFF0D4B1B7803F06003202B05D0402B06D022
:405A400043B900F093FC06E001F022F903E000F037FE00E0002010B90322024B1A7008BD286000401585FF1F0060004008B5094B1978094A13889BB20B449BB213800022D9
:405A8000064B1A700120FFF7B1FF0322044B1A7008BD00BFF484FF1FF684FF1FF884FF1F1585FF1F08B50B4B1B78DBB2042B06D0062B07D0022B0BD1FFF7D8FF08BDFFF771
:405AC0003DFF08BD0320FFF791FF0322024B1A7008BD00BFF884FF1F1585FF1F08B50022044B1A700120FFF781FF0322024B1A7008BD00BFF884FF1F1585FF1F08B50B4BF6
:405B00001B7813F0FF0F07D0084A137843F0800307490B70002313700022064B1A700120FFF764FF0322044B1A7008BD1685FF1F08600040F884FF1F1585FF1F08B5094BE8
:405B40001B78DBB2042B06D0062B07D0022B07D1FFF7F0FE08BDFFF7C1FF08BDFFF7CEFF08BD00BFF884FF1F08B5284B1B78DBB213F0100F48D013F0800F0CD003F00F03F1
:405B8000012B16D1FFF744FF214B1B7813F0800F11D1012312E013F0400F03D0FFF7CEFF01230BE013F0200F07D0FFF77BFF012304E0002302E0002300E0002323B3134B39
:405BC0001B7813F0800F1FD1124B1B78124A12781343124A13701278D2B2934214D10C4B1B78DBB2094A127812F0800F07D1084B1B78DBB2054A1370137803F00F03044ADD
:405C00001278D2B29342EAD108BD00BF286000401585FF1F8A85FF1F1885FF1F296000400022064B1A80064B9B682BB1044A916800230B7092685380704700BFF684FF1F14
:405C40000085FF1F08B50F4B1B889BB213B9FFF757FE15E002220C4B1A7000220B4B1A70FFF7DEFF0A4AD179937943EA0123054A128892B2934201D2024A1380FFF7F4FDFE
:405C8000012008BD0085FF1FF884FF1F8A85FF1F0060004008B504220B4B1A7080220B4B1A70FFF7BDFF0A4AD179937943EA0123084A128892B2934201D2064A13800B221A
:405CC000054B1A70012008BDF884FF1F8A85FF1F006000400085FF1F1585FF1F0122094B1A700F3B9B7C084B1B7B03F00303934204D0054AD37B83F08003D3730122024BEC
:405D00005A7370470B6000401C85FF1F02220A4B1A700F3B93F82230084B1B7E03F00303012B04D0054AD37E83F08003D3760122024B5A76704700BF0B6000401C85FF1F67
:405D400004220C4B1A700F3B93F832300A4B93F8243003F00303012B06D0074A92F8273083F0800382F827300122034B83F82520704700BF0B6000401C85FF1F704700BF36
:405D800008B5FFF70FFB08BD08B500F0C7FD08BD70B588B0054603AC174E0FCE0FC43368237035B322232B7003236B7001A800F0AFFE002402231AE008AA224412F81C2CD5
:405DC00008A901EB121111F8141CE954581C00212954981C02F00F0208AE324412F8142C2A54DA1CA9540134E4B20433DBB2212BE2D908B070BD00BF6897000010B401239C
:405E00003EE019461A010C242148845403EB4300820020480244527912F0FF0F13D003EB430082001B480244127912F0800F04D01801194A024494700AE01801164A02447F
:405E40000820907004E01801134A0244802090704800084482000F480244D488E4B208010B4901448C71D088C0F30720C871D088C0B20871D288C2F307224A710133DBB214
:405E8000082BBED9FF22054B1A7010BC704700BF706000401C85FF1FFC5F00400A600040074B1A78074B03EBC2035B681A7C824204D9C00010301844406870470020704752
:405EC000F584FF1F7C970000F8B5404B1B7813F0FF0F79D03D4B18780138C0B2FFF7E0FF047AC2683A4B1878C0B200236AE01178884264D13749095CC9B25578A9425ED1D0
:405F0000917801F07F01D67806F00306DFF8C8E04D000D44AF000EEB07054FF0000C85F803C092F802C085F804C092F803C00EF807C097882F8192F90250002D0DDA012EA8
:405F400001D1072700E00D274E000E44B500224E35446F7101266E700CE0012E01D1052700E009274E000E44B5001B4E35446F7100266E70DFF868E00F010EEB070601254B
:405F8000B57001FA05F529448D00134929440D89C5F307250EF807500D89EDB27570CE88F6B20E4D3D44AE71CE88C6F30726EE71CE88F6B22E71C988C1F3072169710832A1
:405FC0000133DBB2A34292D3F8BD00BF1785FF1F0C85FF1F8885FF1F1C85FF1F70600040FC5F0040034B1A78034B03EBC2035868704700BFF584FF1F7C97000008B5084B53
:4060000018780138C0B2FFF74BFF30B142681279023200EBC203586808BD002008BD00BF1785FF1F2DE9F047002310E0724D5900CA189600AC190022AA55A270E27022812B
:40604000A272627034462C4462710133DBB2082BECD940B90AE000226849CA546849CA540133DBB200E00023012BF4D9654B1B7813F0FF0F00F0BD80624B18780138C0B2FB
:40608000FFF70EFF80464368DB7913F0400F05D05D4A137843F00103137004E05A4A137803F0FE03137098F808704FF0000A01266FE0D8F80C50002467E0AB7803F07F0385
:4060C0009E425FD1314606EB460083004A4803441B899BB2A888834206D206EB460E4FEA8E03454A134418812B784448C35CDBB26878834246D195F802C0DFF8FCE04B0056
:406100000B4498000EEB000383F804C0EB780EF80030EB7803F0030395F90200002813DA012B02D14FF0070901E04FF00D09DFF8C8E04B0003EB010C4FEA8C00704480F869
:4061400005900121417012E0012B02D14FF0050901E04FF00909DFF8A0E04B0003EB010C4FEA8C00704480F8059000214170AB790A2B01D0022B05D1524631462846FFF7B2
:406180004BFB824608350134E4B2BC4295D30136F6B2082E8DD9D8F80C0000220CE0837803F07F0310F8084B03EB43039900124B19448C720132D2B2BA42F0D3FFF71EFF25
:4061C000124B1860002301210FE00B4D4A00501884002C44E380228992B213449BB203F0010213449BB20131C9B20829EDD9FFF705FEBDE8F08700BF1C85FF1F8885FF1FA6
:40620000FC84FF1F1785FF1F1985FF1F1085FF1F08B5154B1B7903F07F035A1ED2B2072A20D8590019448A0010490A44917841F0010191700021D170517841F00201517008
:40624000127912F0800F05D01B01094A1A448D23937004E01B01064A1A4489239370FFF7AFFB08BD002008BD006000401C85FF1FFC5F0040274B1B7903F07F035A1ED2B295
:40628000072A44D810B5590019448A0022490A44917801F0FE0191700021D1701F4C1801215C01F07F012154517801F0FD015170127912F0800F13D003EB43018A001649FD
:4062C0000A445278D2B2012A04D1224602440C23937019E01B01114A1A440D23937013E003EB43018A000C490A445278D2B2012A05D11B01094A1A440823937004E01B0185
:40630000064A1A4409239370FFF75AFB10BD0020704700BF006000401C85FF1FFC5F004010B50E4B1C79E4B20D4B18780138C0B2FFF7B6FD43681B799C4201D9022C0AD84C
:40634000084A135DDBB208490B55044B9B78DBB21355012010BD002010BD00BF006000401785FF1F8885FF1FFC84FF1F10B59C4B1B78DBB200219B4A118013F0800F00F024
:40638000AD80974A5278D2B20A2A00F27481DFE812F06900720172017201720172010B007201920072019A008D4BDB78DBB2012B09D1FFF717FE42688A4B5A6012221A8008
:4063C000FFF740FC10BD864BDB78DBB2022B13D1834B9878FFF764FD002800F04E814268804B5A605A68D1785A68927842EA01221A80FFF727FC10BD794BDB78DBB2032B19
:4064000005D02CE00A7811440133DBB201E000237549734A9278D2B2934203D20A7812F0FF0FEFD16E4B9B7813F0FF0F0BD06C4B9B78DBB26D4A127C934204D16C4C2046BE
:40644000FFF7A6FC21460B7813F0FF0F00F017810B78644A13805160FFF7F4FB10BD00F017FC10BD13F0030317D0022B40F009815C490B805A4B1B7903F07F0303EB430321
:406480009A005C4B1A449278D2B25B4B1A7000225A704B60FFF7D6FB10BD524902230B80564B1A78D2B2544B1A7000225A704B60FFF7C8FB10BD4B4B01221A80504A5A6065
:4064C000FFF7C0FB10BD474A01231380444B1B794C490B445360FFF7B5FB10BD404A5278013A0A2A00F2CF80DFE812F04C00CD009800CD000B00CD00CD00CD001300CD000C
:406500003000374B9B78DBB23F4A1370FFF758FA10BD334B9B7803F0FF041BB1601EC0B2FFF7BEFC04B110B9002C40F0AE80344B1B78DBB29C4206D0314B1C700120334BF3
:406540001870FFF76FFDFFF73BFA10BDFFF7E8FE002800F09C80224A1379DBB21279D2B22B490A702B4AD25CD2B22649CB5CDBB29A4204D00122254B1A70FFF7A5FCFFF703
:406580001FFA10BD03F00303012B17D04BB1022B7FD1134B9B7813F0FF0F7CD1FFF76AFE10BD0F4B9B78DBB2012B76D1134A137803F0FD031370FFF703FA10BD084B1B7904
:4065C000DBB2012B6BD8064B98781B79DBB21249CA5C22EA0002CA54FFF7F2F910BD00BF006000400085FF1FE4970000C89800009085FF1F1C85FF1F4882FF1F1985FF1F4F
:406600001785FF1F8885FF1F1685FF1F1485FF1F0C85FF1FFC84FF1F8C85FF1F03F00303012B17D04BB1022B3BD1224B9B7813F0FF0F38D1FFF7ECFD10BD1E4B9B78DBB2F9
:40664000012B32D11C4A137843F002031370FFF7B7F910BD174B1B79DBB2012B27D8154B98781B79DBB21549CA5C22EA0002CA54FFF7A6F910BD002010BD002010BD002081
:4066800010BD002010BD002010BD002010BD002010BD002010BD002010BD002010BD002010BD002010BD002010BD002010BD002010BD00BF006000401985FF1F8C85FF1FA7
:4066C000044B1B7813F0800F01D0024B5B780020704700BF00600040044A137803F0FD03400000F0020018431070704730510040014B1B68D864704708ED00E04001C0B264
:40670000014B1870704700BF03E400E00822014B1A60704700E100E00822014B1A60704780E100E010B50446FFF7F6FF2046FFF7DFFF0720FFF7E2FFFFF7E8FF10BD00BF5D
:406740000822014B1A60704780E200E0024A137843F08003137070477F640040014B1870704700BF0F640040014B1870704700BF4F640040014B1870704700BF2F640040EF
:4067800008B50A4A137803F0C00313702032137843F0010313701320FFF7E0FF1320FFF7E3FF1120FFF7E6FF08BD00BF7F64004008B5054B1B7823B9FFF7E2FF0122024BE4
:4067C0001A70FFF7C3FF08BD4A82FF1F014B1870704700BF7B640040024A137843F08003137070477A640040024A137803F07F03137070477A640040014B1870704700BF6C
:406800008C640040014B1878704700BF6C64004008B50146014800F0B3F908BD2A640040024B186820F07F40704700BF4A64004008B50146014800F0A3F908BD0A640040FE
:40684000034B1B78034B186820F07F40704700BF0A6400404A64004008B501E0FFF7E0FFFFF7D0FF10F0080FF8D108BD10B50B4C2046FFF7CDFF2046FFF7DAFF00F000FA48
:40688000074A137843F01003137000F0FDF9FFF7E3FF0120FFF7B0FF10BD00BF3F420F009C64004008B5054B1B7823B9FFF7DEFF0122024B1A70FFF78FFF08BD4B82FF1FD6
:4068C000014B1B681865704708ED00E04001C0B2014B1870704700BF04E400E01022014B1A60704700E100E01022014B1A60704780E100E010B50446FFF7F6FF2046FFF745
:40690000DFFF0720FFF7E2FFFFF7E8FF10BD00BF1022014B1A60704780E200E0024B1878C0F38010704700BF8F45004001BE704710B5044605E0084B186800F099F9A4F51F
:406940000044B4F5004FF6D8034B586800FB04F000F08EF910BD00BFF080FF1F08B5034B1B7A00FB03F000F083F908BDF080FF1F70B504460E46074B1D680F2802D9002066
:40698000FFF7D4FF04F00F0455F8240045F8246070BD00BF08ED00E070B504460E46074B1D681F2802D90020FFF7C0FF04F01F04103455F8240045F8246070BD08ED00E0F4
:4069C00038B504460D46072902D90020FFF7AEFF1F2C02D90020FFF7A9FF04F01F0000F1604000F564406D01EDB2057038BD00BF024A136843F002031360704710E000E0EF
:406A000008B5FFF7F5FF034A136843F00103136008BD00BF10E000E020F07F40014B1860704700BF14E000E0012805D1054A136843F0040313607047024A136823F00403FE
:406A40001360704710E000E0024B1868C0F30040704700BF10E000E010B5FFF7F5FF01280BD107E0054B03EB84035B6803B19847013400E00024042CF4D910BD4C82FF1F71
:406A80000022014B1A60704718E000E008B5002305E00F4A02EB8302002151600133042BF7D90C490F20FFF763FF0120FFF7BCFF094BDB680948A0FB03308009FFF7ACFF3C
:406AC000FFF7DEFF4FF40042054B1A6008BD00BF4C82FF1F596A0000F080FF1FD34D621000E100E008B5054B9B6923B9FFF7CEFF0122024B9A61FFF783FF08BD4C82FF1F1C
:406B0000024B03EB80035868596070474C82FF1F134B1B78DBB20360124A127843EA02230360114A127843EA024303600F4A127843EA026303600E4B1B78DBB243600D4AFA
:406B4000127843EA022343600B4A127843EA024343600A4A127843EA02634360704700BF0301004904010049EC46004002010049010100490001004905010049060100498C
:406B8000CBB20370C1F307234370C1F307418170704700BF084A137843F0010313701032137843F00103137002F64D32137843F001031370704700BFA3430040014B188097
:406BC000704700BF044F0040014B1880704700BF064F0040014B1870704700BF034F004008B5194A137843F0020313700232137803F08F0343F010031370144B1A7802F06B
:406C0000CF021A701A7842F030021A701A7802F0F0021A701A7842F00F021A700A20FFF7CDFF0020FFF7D0FF0020FFF7D3FF084A137843F00103137002F65E32137843F084
:406C40000103137008BD00BF004F00400B4F0040A343004008B5054B1B7823B9FFF7C0FF0122024B1A70FFF795FF08BD6882FF1F0230800803D000BF01380046FCD17047E9
:406C8000EFF3108072B6704780F31088704700BF08B5144B1B7803F00303012B02D0022B04D00FE00F4B1B79DBB20CE00D4B1B7903F07F0303EB43039A000B4B1A44937A15
:406CC000DBB200E00023022B07D8084A1268D35C022B04D1FEF76EFC08BD002008BD002008BD00BF006000401C85FF1F1085FF1F014B1868704700BF6081FF1F0E4B70B57D
:406D00001E460E4C0025E41AA410A54204D056F8253098470135F8E702F090FE084B094C1E46E41AA4100025A54204D056F8253098470135F8E770BD489A0000489A0000C6
:406D4000489A0000509A000010B5431E0A44914204D011F8014B03F8014FF8E710BD03460244934202D003F8011BFAE770472DE9F04788B0149F002B1E461299B8BF03F11E
:406D8000004327F02007B6BF1E4600232D23462F1446109DDDF84CA00B7003D0452F03D1013501E0032300E0022307AA049206AA03928DE828042246334600F001FD472F7F
:406DC000804602D1119BDB0728D5462F08EB050911D198F80030302B0AD1002200232046314602F0F9FB18B9C5F10105CAF80050DAF800309944002200232046314602F087
:406E0000EBFB08B9302202E0CDF81C9006E0079B994503D9591C07911A70F8E74046079B159AC8EB0303136008B0BDE8F087034673B50029B8BF494203F8022BB4BF2D22F1
:406E40002B22092942701ADD0DF1070216460A2591FBF5F405FB1411092C01F1300102F8011D2146F4DC3031541E02F8011CB4421A460AD214F8012B03F8012BF7E71A465E
:406E80003024214402F8024B5970101A02B070BD2DE9F04F91B00C46DDF8688016461F46054601F025FA03681846099300F0F4FB00230E93D8F800300A90073323F0070346
:406EC00003F1080294F81890D4F800B0C8F80020D3E90023C4E91223D4F84CA0D4F848802AF000430B934FF0FF32A74B40460B9902F0A4FBA0B94FF0FF32A34B40460B99FE
:406F000002F07EFB60B9002200234046514602F06DFB10B12D2384F843309C4B9C4A0AE0424653464046514602F088FB002800F09281984B984AB9F1470F8CBF90469846B8
:406F4000032323612BF0040323604FF0000A3DE0B9F1670F00F08A81B9F1470F00F0868123600193636800210DF13302059002920093424653460691CDF81090CDF80CE08A
:406F80002846FFF7F4FE09F0DF03472B804600F08481B9F1650F0D9900F28D8101394A4604F150000D91FFF742FF0E9A82468318012A236100F37C812268D10700F17881D5
:406FC0009DF8333013B12D2384F84330009733460FAA2146284600F09FF9013002D14FF0FF3096E123685A0501D4236965E0B9F1650F40F2D580D4E912010022002302F04B
:40700000EBFA78B30123654A31462846B8470130E5D00E9B0D9A9A420BDB2368D80708D423689B0740F111814FF0000804F1190906E10A9B099A31462846B8470130CED01B
:407040004FF0000804F11A090E9B013B9845E7DA01234A4631462846B8470130BFD008F10108F1E70D9B002B29DC01234B4A31462846B8470130B2D00D9B23B90E9B13B9DB
:407080002368D907CCD50A9B099A31462846B8470130A4D04FF0000904F11A0A0D9B5B42994509DA0123524631462846B847013095D009F10109F1E70E9B4246A7E00E9A1A
:4070C000A36D9A42A8BF1A46002A914606DC4FF0000A29EAE97904F11A0B11E01346314642462846B8470130F1D178E701235A4631462846B84701303FF471AF0AF1010AE8
:40710000A36DC9EB03029245F0DB08EB03090D9A0E9B9A420FDB2368DA070CD40E9B0D9A9844C9EB08089B1A9845A8BF9846B8F1000F08DC0FE00A9B099A31462846B84705
:407140000130EBD14BE743464A4631462846B84701303FF444AF4FF0000928EAE87804F11A0A09E00123524631462846B84701303FF435AF09F101090D9A0E9B9B1AC8EB3C
:4071800003039945EEDB4BE7FFFFEF7FDC980000E0980000E4980000E8980000EC9800000E9A012A01DCDB0738D50123424631462846B84701303FF412AF0A9B099A314605
:4071C0002846B84701303FF40AAFD4E912010022002302F001FA20B14FF0000804F11A090EE00E9B08F10102013B19E001234A4631462846B84701303FF4F1AE08F101086E
:407200000E9B013B9845F1DB534604F1500231462846B84701307FF403AFE0E64246012331462846B8470130EED1D8E601234A4631462846B84701303FF4D1AE08F1010825
